:020000040800F2
:10000000C006002099020008431300085B12000894
:10001000411300088F0400080914000800000000C4
:10002000000000000000000000000000471300086E
:10003000910400080000000045130008491300085F
:10004000B3020008B3020008B3020008B3020008BC
:10005000B3020008B3020008B3020008B3020008AC
:10006000B3020008B3020008B3020008B30200089C
:10007000B3020008B3020008B3020008B30200088C
:10008000B3020008B3020008B3020008B30200087C
:10009000B3020008B3020008B3020008B30200086C
:1000A000B3020008B3020008B3020008B30200085C
:1000B000B3020008B3020008B3020008B30200084C
:1000C000B3020008B3020008B3020008B30200083C
:1000D000B3020008B3020008B3020008B30200082C
:1000E000B3020008B3020008B3020008B30200081C
:1000F000B3020008B3020008B3020008B30200080C
:10010000B3020008B3020008B3020008B3020008FB
:10011000B3020008B3020008B3020008B3020008EB
:10012000B3020008B3020008B3020008B3020008DB
:10013000B3020008B3020008B3020008B3020008CB
:10014000B3020008B3020008B3020008B3020008BB
:10015000B3020008B3020008B3020008B3020008AB
:10016000B3020008B3020008B3020008B30200089B
:10017000B3020008B3020008B30200080000000048
:10018000B3020008B3020008B3020008B30200087B
:10019000B3020008B3020008B3020008B30200086B
:1001A000B3020008B3020008B3020008B30200085B
:1001B000B3020008B3020008B3020008B30200084B
:1001C000B3020008B302000800000000B3020008F8
:1001D000B3020008B3020008B3020008B30200082B
:1001E000B3020008B3020008B3020008B30200081B
:1001F000B3020008B302000800F002F800F03CF877
:100200000AA090E8000C82448344AAF10107DA4571
:1002100001D100F031F8AFF2090EBAE80F0013F087
:10022000010F18BFFB1A43F001031847A412000086
:10023000C4120000103A24BF78C878C1FAD8520717
:1002400024BF30C830C144BF04680C607047000050
:100250000023002400250026103A28BF78C1FBD8CF
:10026000520728BF30C148BF0B6070471FB501F06F
:1002700021F91FBD10B510BD00F0CFF81146FFF7F2
:10028000F5FF01F0D3F800F0EDF803B4FFF7F2FF4B
:1002900003BC00F0F5F80000094880470948004712
:1002A000FEE7FEE7FEE7FEE7FEE7FEE7FEE7FEE726
:1002B000FEE7FEE704480549054A064B7047000083
:1002C000ED130008F9010008C0000020C00600205E
:1002D000C0020020C002002053EA020C00F0698036
:1002E0002DE9F04B4FF00006002B1FBFB3FA83F54A
:1002F00003FA05F424FA05F65E4012BF1643B2FA7B
:1003000082F502FA05F4C5F120051EBF22FA05FCAC
:1003100044EA0C04203556EA044C4FEA144418BF52
:10032000641C4FF000084FF00009904271EB030C81
:1003300039D3002919BFB1FA81F701FA07F6B0FAEB
:1003400080F700FA07F6C7F120071EBF20FA07FC66
:1003500046EA0C062037B6FBF4FCA7EB0507103F76
:1003600007F01F0BCBF120060CFA0BFB2CFA06F65C
:1003700044BFB3460026202FA4BF5E464FF0000BBB
:100380005BEA060C08BF4FF0010B19EB0B09ABFB46
:10039000027C48EB0608C01B06FB02CC0BFB03CC1F
:1003A00071EB0C01C1E70B46024641464846BDE8E9
:1003B000F08B13B54FF000004FF00001AFF3008059
:1003C000BDE81C4070474FF0000200B5134694464C
:1003D0009646203922BFA0E80C50A0E80C50B1F19D
:1003E0002001BFF4F7AF090728BFA0E80C5048BFB1
:1003F0000CC05DF804EB890028BF40F8042B08BF4F
:10040000704748BF20F8022B11F0804F18BF00F84A
:10041000012B7047704770477047754600F02CF805
:10042000AE4605006946534620F00700854618B0E1
:1004300020B5FFF73FFFBDE820404FF000064FF02A
:1004400000074FF000084FF0000B21F00701AC4609
:10045000ACE8C009ACE8C009ACE8C009ACE8C00928
:100460008D46704710B50446AFF300802046BDE8C6
:100470001040FFF70ABF00000048704760000020EE
:1004800001491820ABBEFEE7260002007047FEE7D8
:10049000704700002DE9F041044621B14FF400619E
:1004A000C800C4E90201E0690025002862D028469E
:1004B0002368D4E9021C3A4F40261A6841EA0C012D
:1004C00001433A4041F40070104318602068076807
:1004D000012000F073F820680760206846602068FB
:1004E0004668012000F06AF820684FF641724660C5
:1004F000206885602068C56021688869104040F0E8
:100500008000886120688669012000F057F8206823
:1005100086612068C5612068C569012000F04EF839
:100520002068204B2049C561206800F58050826911
:100530001A4011438161206800F5805085690120CF
:1005400000F03CF82068194900F58050856120686A
:1005500000F580500160206800F58050056801209A
:1005600000F02CF8206800F580500560A069012893
:1005700003D009E04FF480609AE720680C4A00F548
:100580008050C1691143C16160690A4982880A6467
:100590000278D0F8010042EA00204864BDE8F0810A
:1005A0000F8120FF233FDEF8040020028020C102DB
:1005B000400001000080024072B6FEE770B50446BC
:1005C00000F0DCFA0546601C02D0044800780444C0
:1005D00000F0D4FA401BA042FAD370BD08000020FE
:1005E0002DE9FC474FF000060400B146009603D009
:1005F00094F8440018B107E00120BDE8FC872046CC
:1006000084F8456000F0E4F86748016841F48041EF
:100610000160006800F4804001906448016821F4A2
:10062000000101600168226A11430160206800F541
:100630008050016841F00101016000F09FFA4FF421
:10064000FA77054609E000BF00F098FA401BB8426F
:1006500003D9032084F8440068E0206800F5805046
:100660000068C007F0D12068006920F01C0500F088
:10067000DDFB4F4A4F4902448A4202D245F0080549
:1006800016E04D494D4A0144914202D245F00C0515
:100690000EE04B4A4B4902448A4209D34A4A4B492D
:1006A0001044884202D245F0040501E045F01005EF
:1006B0002068056100214FF40042204600F02EF929
:1006C0004FF00105B0BBFF20FFF778FF606890B3E3
:1006D00000F054FA804641F2883701216A462046EC
:1006E00000F0D8F800F04AFAA0EB0800B84217D89A
:1006F00000984007F1D5002120464FF4805200F0C9
:100700000DF9B8B900F03AFA80466A460121204650
:1007100000F0C0F800F032FAA0EB0800B8420BD9A4
:1007200001212046FFF7B6FE84F84450032084F8E8
:10073000456062E724E018E000988006E5D51021C6
:100740006A46204600F0A6F8D0B90098410703D5C4
:100750004FF40061E16000E0E660800701D5A6602B
:1007600019E04FF48040A06015E0D4E90210C00801
:1007700040EA510082B22046002100F0CFF830B1AB
:1007800001212046FFF786FE84F8445034E740F606
:10079000FF70FFF713FF49462046FFF77BFE84F802
:1007A0004450002029E7000044380240043801404A
:1007B00000D3CEFEC0E1E40040F1E9FD40787D01C8
:1007C00000796CFC005A6202001F0AFA80F0FA02FB
:1007D000F0B587B0044614216846FFF7F4FD2849B8
:1007E000206888424AD12748016841F000710160C1
:1007F000016801F000710591016841F080610160BC
:10080000016801F080610591016841F000610160BB
:10081000016801F000610591016841F00401016087
:10082000016801F004010591016841F001010160D6
:10083000016801F001010591016841F0400101608A
:10084000006802240025694600F040000590032658
:100850000B2732208DE8F1000B4800F09DF8862030
:1008600069468DE8F100094800F096F84FF4D04051
:1008700069468DE8F100064800F08EF807B0F0BD3B
:100880000080024030380240000802400000024070
:10089000001802402DE9F047044690F844009146C4
:1008A00082281DD082224FF6FF7084F844204FF436
:1008B000F863226803EA8111258A136900EAC520DA
:1008C00003F01C031843014321F0020040F001052E
:1008D000156100F053F9012706464FF4803811E006
:1008E0000220BDE8F08700BF00F048F9801B4045BA
:1008F00006D3002084F8447084F845000320F0E714
:1009000020680569E807EFD12068406981B2C9F81D
:10091000001084F844700020E3E700002DE9F04166
:10092000044690F8440042281ED042204FF6FF7340
:1009300084F8440096B220684FF4F867258A07EAE5
:1009400081110269466103EAC520236802F01C0296
:100950001043014341F003051D6100F00FF9012729
:1009600006464FF4803811E00220BDE8F08100BF58
:1009700000F004F9801B404506D3002084F8447041
:1009800084F845000320F0E720680569E807EFD107
:1009900084F84470E9E700002DE9F84F00224FF099
:1009A00001094FF0030A4FF00F0E00BF0B6809FA60
:1009B00002F42340A34270D14D68012D05D0022DD1
:1009C00003D0112D01D0122D11D185685700CE68AA
:1009D0000AFA07FC25EA0C05BE402E4386604568EE
:1009E0000E79A543C6F3001696402E434660C568AF
:1009F00056008F680AFA06F4A543B7402F43C76034
:100A00004D68022D01D0122D12D1D5080F694FEA81
:100A1000427C00EB8505AB462D6A4FEADC6C0EFA92
:100A20000CF807FA0CF725EA08052F43CBF82070DD
:100A30000D79076805F00305A743B5403D43056000
:100A40004C68E40074D53D4C256845F4804525602C
:100A5000246822F00307960704F480440094384C7D
:100A6000360F2744D7F80848DFF8D8C00EFA06F545
:100A7000604524EA050401D100252EE0324DA8424C
:100A800001D1012529E0314DA84201D1022524E000
:100A90002F4DA84202D103251FE049E02D4DA84269
:100AA00001D1042519E02C4DA84201D1052514E0FF
:100AB0002A4DA84201D106250FE0294DA84201D1B7
:100AC00007250AE0274DA84201D1082505E0264D5B
:100AD000A84201D1092500E00A25B540234E25434F
:100AE000C7F808584D683468ED0324EA030400D5BC
:100AF0001C431E4D34602D1D4E682C68B60324EA3D
:100B0000030400D51C43194E2C6008364D68346828
:100B1000ED0224EA030400D51C43144D34600C3567
:100B20004E682C68B60224EA030400D51C432C60EE
:100B3000521C102AFFF43AAFBDE8F88F4438024047
:100B40000030014000000240000402400008024062
:100B5000000C024000100240001402400018024045
:100B6000001C02400020024000240240003C0140E2
:100B70000AB1816170470904FBE700000148806801
:100B80007047000008000020024881680278114484
:100B90008160704708000020074810B5016841F4E3
:100BA00080710160032000F061F80F2000F006F86A
:100BB00000F024F8002010BD003C024070B50D4D3F
:100BC00004464FF47A700C4A29781268B0FBF1F0B1
:100BD000B2FBF0F000F02EFB48B9102C07D2002237
:100BE0002146501E00F022F800206C6070BD0120EC
:100BF00070BD000008000020140000200A4808B55D
:100C0000016841F080510160006800F08050009060
:100C10000548001D016841F480410160006800F44E
:100C20008040009008BD0000403802400E4BF0B4F8
:100C30001B680D46C3F30223C3F10706042E00D937
:100C40000426191D072901D2002300E0DB1E012420
:100C500004FA06F19C40491E2940641E9940144044
:100C60002143F0BC00F0D1BB0CED00E0064900F0E0
:100C7000070210B54FF6FF040868044B204040EA15
:100C800002201843086010BD0CED00E00000FA05DA
:100C90001848F8B5016841F0805101600068164CB1
:100CA00000F080500090206840F480302060FFF712
:100CB00065FF4FF47A76054605E000BFFFF75EFF5B
:100CC000401BB0420FD86068C003F7D5206840F4DD
:100CD00000302060FFF752FF054606E0FFF74EFFA9
:100CE000401BB04201D90320F8BD60688003F5D5F0
:100CF0000020F8BD40380240007000402DE9F04768
:100D000005000F4663D0444E306800F00F00B84233
:100D100009D2306820F00F0038433060306800F0AE
:100D20000F00B84253D128683C4C810712D54007C8
:100D300003D5206840F4E05020602878000703D5F0
:100D4000206840F460402060A968206820F0F0002E
:100D5000084320602878C0072AD0304968680839DD
:100D6000012810D00968022810D0890700292EDA3E
:100D7000216821F0030101432160FFF7FFFE804657
:100D800041F288390DE009688903EFE78901EDE751
:100D9000FFF7F4FEA0EB0801494502D90320BDE8A6
:100DA000F0876868216801F00C01B1EB800FEFD18A
:100DB000306800F00F00B8420BD9306820F00F0007
:100DC00038433060306800F00F00B84201D0012095
:100DD000E5E72878400705D5E968206820F4E05069
:100DE000084320602878000706D52869216821F487
:100DF000604141EAC000206000F01EF82168084A06
:100E0000C1F30311515CC8400649086006480068F8
:100E1000FFF7D4FE0020C2E7003C02400838024041
:100E2000BE140008140000200C00002001480068D7
:100E30007047000014000020154910B515480968D6
:100E400011F00C0213D01449042A0FD0082A0ED135
:100E50000F4C241F2268236802F03F025B0207D573
:100E60002068C0F38810A0FB010106E0084610BD11
:100E70002168C1F38811A1FB00010023FFF72CFAC0
:100E80002168C1F30141491C4900B0FBF1F010BDDC
:100E9000083802400024F40040787D012DE9F84F25
:100EA00004004FF000076ED02078DFF87CA3AAF191
:100EB0000408C007A8F104054CD0DAF80010504629
:100EC000C1F38101012908D00068C0F38100022824
:100ED0000AD1D8F80000400206D52868800339D529
:100EE00060680028DFD035E06068B0F5803F0BD047
:100EF00010B1B0F5A02F11D0286820F48030286000
:100F0000286820F4802002E0286840F480302860BF
:100F1000606890B1FFF732FE06460AE0286840F4A8
:100F200080202860F0E700BFFFF728FE801B6428C0
:100F300072D828688003F7D50CE0FFF71FFE06463D
:100F400005E000BFFFF71AFE801B6428F0D8286870
:100F50008003F7D42078800742D5DAF80010504695
:100F600011F00C0F08D00068C0F3810002280BD1EB
:100F7000D8F80000400207D42868800718D5E06838
:100F8000012800D114E04AE1E0680028286817D061
:100F900040F001002860FFF7F1FD064605E000BFC4
:100FA000FFF7ECFD801B0228C2D828688007F7D520
:100FB0002069296821F0F80141EAC00028600FE0AB
:100FC00020F001002860FFF7D9FD064605E000BFCC
:100FD000FFF7D4FD801B02281ED828688007F7D4AD
:100FE0002078000729D5904861696C300029814636
:100FF000016812D041F001010160FFF7BFFD064614
:1010000005E000BFFFF7BAFD801B022804D8D9F81D
:1010100000008007F6D510E089E021F001010160B1
:10102000FFF7ACFD064604E0FFF7A8FD801B022891
:101030007DD8D9F800008007F6D4207840076BD51A
:10104000DFF8E49109F13809D9F80000C0000BD4A9
:10105000D9F8001041F08051C9F80010D9F800000B
:10106000012700F08050009070480168C90512D433
:101070000168834641F480710160FFF77FFD0646F9
:1010800005E000BFFFF77AFD801B64284FD8DBF82E
:101090000000C005F6D5644EA068683601280AD065
:1010A00008B1052811D0306820F0010030603068A8
:1010B00020F0040002E0306840F001003060A068D9
:1010C000A0B1FFF75BFD83460CE0306840F0040000
:1010D0003060F0E7FFF752FDA0EB0B0141F28830E2
:1010E000814268D830688007F4D50EE0FFF746FDEE
:1010F000834607E0FFF742FDA0EB0B0141F2883089
:10110000814258D830688007F4D42FB1D9F8001044
:1011100021F08051C9F80010A069E0B3DAF800109E
:10112000C1F3810102294DD00228286800E042E085
:1011300020F08070286003D0FFF720FD04463DE0DA
:10114000FFF71CFD064604E0FFF718FD801B022890
:1011500031D828688001F7D4D4E90921DFF8D0C05C
:10116000D4E9070694F830304F0894F82C10304337
:101170000CEB074444EA8212104340EA016040EA63
:101180000370C8F80000286840F080702860FFF7FE
:10119000F5FC044605E044E0FFF7F0FC001B0228E4
:1011A00009D828688001F7D53BE000BFFFF7E6FCCF
:1011B000001B022802D90320BDE8F88F28688001AF
:1011C000F4D42EE00128D8F8000028D0E16900F41A
:1011D00080028A4223D1216A00F03F028A421ED156
:1011E000626A47F6C0710140B1EB821F17D1A16A54
:1011F0004FF0FF3200F4403302EB5101B3EB014FEB
:101200000DD194F82C1000F07062B2EB016F06D192
:1012100094F8301000F0E040B0EB017F01D00120E5
:10122000CAE70020C8E7000008380240007000400C
:101230000000FFFF401EB0F1807F10B501D30120F8
:1012400010BD4FF0E02460610F21601700F0DDF861
:101250000020A0610721216110BDFEE72DE9F041CA
:1012600012480125104C0022AF031149802304606D
:10127000E614C660E124C0E9015705821D040A7026
:101280004B708C70CA700A714A71C0E90512C0E9CE
:101290000725FFF7A5F9002803D0BDE8F041FFF7C7
:1012A0008BB9BDE8F08100000080024018000020EA
:1012B0000000002010B586B014216846FFF783F8BF
:1012C0001D48016841F080010160016801F0800162
:1012D0000591016841F004010160016801F0040119
:1012E0000591016841F001010160016801F001010F
:1012F0000591016841F008010160016801F00801F1
:101300000591016841F040010160006800220B4C2A
:10131000082100F0400005902046FFF729FC00213D
:101320000820009001222046CDE901210391694661
:10133000FFF732FB06B010BD30380240000C02400F
:10134000FEE7FEE770477047FFF71EBC30B593B06D
:1013500034216846FFF737F814210DA8FFF733F85A
:101360002048016841F080510160006800F0805021
:1013700012901D48016841F4404101600068022458
:10138000192300F440401290012008934FF4D875BF
:1013900082050104CDE90642CDE909540B94CDE95B
:1013A000000168460C94FFF779FD08B172B6FEE7BC
:1013B000FFF76EFC08B172B6FEE70FAD00214FF4E7
:1013C000A0524FF4805385E80E000F20CDE90D04A4
:1013D00007210DA8FFF792FC002801D072B6FEE7A6
:1013E00013B030BD403802400070004005484FF057
:1013F00000610368034A43F470030360803A11609C
:101400007047000088ED00E0FEE7090700284FEA7A
:10141000116104DB00F1E02080F80014704700F057
:101420000F0000F1E02080F8141D7047BFF34F8FCC
:10143000BFF36F8F1D4900200860BFF34F8FBFF3CC
:101440006F8F1B4A116841F400311160BFF34F8F59
:10145000BFF36F8F164970310860BFF34F8F081FBD
:1014600043F6FF740068114D1035C0F34E31C0F3E0
:10147000C90304EA4116184646EA80772F60401EE9
:10148000FAD2491EF5D2BFF34F8F106840F4803076
:101490001060BFF34F8FBFF36F8FFFF77DFBFFF738
:1014A00055FFFFF707FFFFF7D9FEFEE750EF00E01B
:1014B00014ED00E04FF04070E1EE100A70470000BC
:1014C00000000000000001020304060708090000F4
:1014D000F01400080000002018000000340200088A
:1014E0000815000818000020A80600005002000897
:1014F00000000000000000000100000010000000DB
:08150000000000000024F400CB
:04000005080001F9F5
:00000001FF
