:020000040800F2
:10000000D0430020D50200086F170008BB16000877
:100010006D1700087F08000869180008000000003C
:1000200000000000000000000000000011020008B5
:1000300081080008000000006D0200089517000804
:10004000EF020008EF020008EF020008EF020008CC
:10005000EF020008EF020008EF020008EF020008BC
:10006000EF020008EF020008EF020008EF020008AC
:10007000EF020008EF020008EF020008EF0200089C
:10008000EF020008EF020008EF020008EF0200088C
:10009000EF020008EF020008EF020008EF0200087C
:1000A000EF020008EF020008EF020008EF0200086C
:1000B000EF020008EF020008EF020008EF0200085C
:1000C000EF020008EF020008EF020008EF0200084C
:1000D000EF020008EF020008EF020008EF0200083C
:1000E000EF020008EF020008EF020008EF0200082C
:1000F000EF020008EF020008EF020008EF0200081C
:10010000EF020008EF020008EF020008EF0200080B
:10011000EF020008EF020008EF020008EF020008FB
:10012000EF020008EF020008EF020008EF020008EB
:10013000EF020008EF020008EF020008EF020008DB
:10014000EF020008EF020008EF020008EF020008CB
:10015000EF020008EF020008EF020008EF020008BB
:10016000EF020008EF020008EF020008EF020008AB
:10017000EF020008EF020008EF0200080000000094
:10018000EF020008EF020008EF020008EF0200088B
:10019000EF020008EF020008EF020008EF0200087B
:1001A000EF020008EF020008EF020008EF0200086B
:1001B000EF020008EF020008EF020008EF0200085B
:1001C000EF020008EF02000800000000EF02000844
:1001D000EF020008EF020008EF020008EF0200083B
:1001E000EF020008EF020008EF020008EF0200082B
:1001F000EF020008EF020008DFF810D000F0BEFAAE
:100200000048004781210008AFF30080D043002060
:100210002D4B19680868B0E8F04F80F30988BFF3E8
:100220006F8F4FF0000080F31188704700000000CE
:1002300008480068006880F308884FF0000080F3E9
:10024000148862B661B6BFF34F8FBFF36F8F00DFC4
:1002500000BF00BF08ED00E0DFF80C00016841F4CA
:1002600070010160704700BF88ED00E0EFF3098086
:10027000BFF36F8F144B1A681EF0100F08BF20EDEC
:10028000108A20E9F04F106009B44FF0500072B6A8
:1002900080F31188BFF34F8FBFF36F8F62B602F008
:1002A00095FB4FF0000080F3118809BC19680868BD
:1002B000B0E8F04F1EF0100F08BFB0EC108A80F3CA
:1002C0000988BFF36F8F704728000020EFF3058087
:1002D000704700000648804706480047FEE7FEE7F3
:1002E000FEE7FEE7FEE7FEE7FEE7FEE7FEE7FEE7E6
:1002F0004D180008F90100082DE9F05F05460020BF
:1003000092469B4688460646814640241BE0284686
:1003100041464746224600F069F853465A46C01AFD
:10032000914110D311461846224600F050F82D1A7C
:1003300067EB01084F4622460120002100F047F8F4
:1003400017EB00094E41201EA4F10104DFDC4846F2
:1003500031462A464346BDE8F09F40EA01039B0729
:1003600003D009E008C9121F08C0042AFAD203E02A
:1003700011F8013B00F8013B521EF9D27047D2B28E
:1003800001E000F8012B491EFBD270470022F6E77E
:1003900010B513460A4604461946FFF7F0FF2046FB
:1003A00010BD30B50B46014600202022012409E093
:1003B00021FA02F59D4205D303FA02F5491B04FA1E
:1003C00002F52844151EA2F10102F1DC30BD202AFD
:1003D00004DB203A00FA02F1002070479140C2F19C
:1003E000200320FA03F3194390407047202A04DBCE
:1003F000203A21FA02F00021704721FA02F3D0409E
:10040000C2F1200291400843194670472DE9FE4F82
:10041000804681EA0300C00F0C46009021F00041A5
:1004200023F00045B8EB0200A94105D24046214621
:1004300090461C460B46024623F00040104347D02E
:10044000270DC7F30A00C3F30A510290401A019026
:1004500040286BDAC3F3130040F4801B00989246E7
:1004600020B10023D2EB030A63EB0B0B0198594632
:10047000C0F140025046FFF7AAFF06460D4650461F
:100480005946019A00F08CF910EB080061410024F4
:1004900087EA115284EAE7731A4340D0009A62B3A4
:1004A000019A012A4FEA075215DC001B61EB020199
:1004B0004FF0004202EA0752CDE90042001C41F52C
:1004C000801132462B4600F08CF903B0BDE8F08F66
:1004D00040462146F9E7001B61EB0201001C41F593
:1004E000801300185B412018A2F5001747EB0301A9
:1004F00040EAD570B6196D4111E06D084FEA360635
:1005000045EAC0754FEA0752001B61EB0201001C6F
:1005100041F5801149084FEA300000195141324637
:100520002B4603B0BDE8F04F00F04CB90098012213
:1005300040000023D0EB020263EBE07300982146F9
:100540004FEAE074B8EB000061EB0401E9E783F0E7
:1005500000435BE781F0004158E72DE9FE4F81EA57
:10056000030404F0004421F0004100944FF0000B1C
:1005700023F0004350EA01045ED052EA03045BD04A
:10058000C3F30A54C1F30A552C44A4F2F334019482
:10059000A0FB0254C1F3130141F48011C3F3130310
:1005A00043F4801301FB024400FB034E840A970AC4
:1005B00044EA815447EA8357A4FB076802958D0AF1
:1005C00005FB07854FEA932C04FB0C542705029D7D
:1005D0004FEA065847EA1637B5EB08056EEB070CED
:1005E000870E920E47EA811742EA8312A7FB0201A7
:1005F000B6EB0B0164EB00042B0D43EA0C335E18E1
:1006000044EB1C50DA465146E7FB0201C5F31304E4
:100610004FEA0B3343EA14534FEA0432019C43EA96
:100620000603A4F10C040294009CCDE900B400F090
:10063000D8F803B0BDE8F08F00200146F9E72DE9B6
:10064000F04D81EA030404F0004B21F0004514460C
:100650004FF0000A23F0004150EA050220D054EA8E
:1006600001021DD0C5F30A570246C5F31303C1F3B7
:100670001300C1F30A5640F4801543F48013A7EB2E
:100680000608101BD64608F2FD3873EB050002D3AE
:1006900008F1010801E092185B41B8F1000F03DA9C
:1006A00000200146BDE8F08D00204FF48011064681
:1006B00084460EE0171B73EB050705D3121B63EB93
:1006C000050306434CEA010C49084FEA3000921832
:1006D0005B4150EA0107EDD152EA030012D082EAF1
:1006E000040083EA0501084305D0101BAB4106D284
:1006F0000122002306E000224FF0004302E06FF0E9
:10070000010253101AEB06004CEB085110EB0A00E3
:1007100041EB0B01BDE8F04D00F054B8C1F30A52B3
:10072000C1F3130140F2FF3341F480119A4202DA1F
:1007300000200146704740F233439A42A2F233420E
:1007400002DC5242FFF752BEFFF741BE30B5041E35
:1007500071F1000404DB4FF00044404264EB0101FE
:10076000141E73F1000405DB1C464FF00043524297
:1007700063EB0403994208BF904230BD064C074D1D
:1007800006E0E06840F0010394E807009847103461
:10079000AC42F6D3FFF734FD242E0008442E0008A7
:1007A000202A06DBCB17203A41FA02F043EAE07335
:1007B00006E041FA02F3D040C2F120029140084322
:1007C0001946704710B5141E73F1000408DA401C76
:1007D00041F1000192185B411A4301D120F0010060
:1007E00010BD2DE9F04D92469B4611B1B1FA81F250
:1007F00002E0B0FA80F220329046FFF7E8FD0446AE
:100800000F4640EA0A0041EA0B0153465A460843A4
:1008100013D0114653EA010019D0C8F140025046E6
:10082000FFF7E4FD05460E46504659464246FFF79F
:10083000CEFD084305D0012004E020463946BDE83E
:10084000F08D0020054346EAE0762C4337430A98B2
:100850006305E40AA0EB08000022FD0A44EA4754BD
:100860000A3002D500200146E9E701051019694167
:10087000DDE9084500196941BDE8F04DA2E7FEE752
:10088000704700002DE9F84F0446AE4800260D469B
:10089000844221D0AC4884421ED0AC4884421BD054
:1008A000AB48844218D0AB48844215D0AA48844251
:1008B00012D0AA4884420FD0A94884420CD0A9483B
:1008C000844209D0A848844206D0A848844203D074
:1008D000B121A7A001F03FFC28880004000C03D13F
:1008E000B221A3A001F037FC6868F8B101281DD03F
:1008F00011281BD0022819D0122817D0AB498842E2
:1009000014D0AB49884211D0AA4988420ED0AA49D6
:1009100088420BD0A949884208D0A949884205D00D
:10092000032803D0B32192A001F015FCA86838B1C8
:10093000012805D0022803D0B4218DA001F00BFCC2
:100940004FF0010A4FF0030B2F680AFA06F0074038
:10095000804647457ED16868012805D0022803D02B
:10096000112801D012281DD1E86848B1012807D00C
:10097000022805D0032803D0C6217DA001F0EBFB9F
:10098000A0687200E9680BFA02F3984391400143B2
:10099000A1606168287921EA0801C0F30010B04025
:1009A00008436060E0687300AA6899460BFA03F890
:1009B00020EA080002FA09F20243E26068680228AD
:1009C00001D0122834D1286908B301281FD0022889
:1009D0001DD003281BD0042819D0052817D00628BD
:1009E00015D0072813D0082811D009280FD00A28BD
:1009F0000DD00B280BD00C2809D00F2807D00D28BC
:100A000005D00E2803D0DE2159A001F0A4FBF00888
:100A100029690F2304EB80024FEA467C106A4FEAF3
:100A2000DC6C03FA0CF3984301FA0CF101431162F8
:100A30002979206801F0030120EA080001FA09F190
:100A4000014321606868C00075D55E48016841F4C3
:100A5000804100E06FE00160006826F00303B20708
:100A600000F48040009058480F21120F0344D3F83F
:100A70000808DFF8D0C09140644520EA010001D1A8
:100A800000212DE030498C4201D1012128E02F497D
:100A90008C4201D1022123E02D498C4201D1032156
:100AA0001EE02C498C4201D1042119E02A498C42D4
:100AB00001D1052114E029498C4201D106210FE022
:100AC00027498C4201D107210AE026498C4201D1F5
:100AD000082105E024498C4201D1092100E00A21C6
:100AE00091403A4A0143C3F8081869681068C9037D
:100AF00020EA070000D5384334491060091D6A68B0
:100B00000868920320EA070000D538432F4A08609E
:100B1000083269681068C90220EA070000D5384326
:100B20002A4910600C316A680868920220EA0700BE
:100B300000D538430860761C102EFFF405AFBDE8E1
:100B4000F88F00000000024000040240000802404C
:100B5000000C024000100240001402400018024045
:100B6000001C0240002002400024024000280240F5
:100B70002E2E2F447269766572732F53544D333283
:100B8000463778785F48414C5F4472697665722FCA
:100B90005372632F73746D3332663778785F686190
:100BA0006C5F6770696F2E63000000000000111019
:100BB000000021100000311000001210000022106F
:100BC000000032104438024000300140003C014037
:100BD00070B50C00054604D14FF4D87105A001F0A2
:100BE000BAFA6869204202D02004A86170BDAC61E5
:100BF00070BD00002E2E2F447269766572732F53DC
:100C0000544D3332463778785F48414C5F447269BF
:100C10007665722F5372632F73746D333266377833
:100C2000785F68616C5F6770696F2E630000000019
:100C300070B50C001546064604D109A04FF4CD71DD
:100C400001F089FA45B1012D04D005A040F29B11B5
:100C500001F081FAB46170BD2004B06170BD000084
:100C60002E2E2F447269766572732F53544D333292
:100C7000463778785F48414C5F4472697665722FD9
:100C80005372632F73746D3332663778785F68619F
:100C90006C5F6770696F2E63000000000148806818
:100CA0007047000018000020024881680278114453
:100CB0008160704718000020074810B5016841F4B2
:100CC00080710160032000F093F80F2000F006F817
:100CD00000F024F8002010BD003C024070B50D4D1E
:100CE00004464FF47A700C4A29781268B0FBF1F090
:100CF000B2FBF0F000F0CEFC48B9102C07D2002275
:100D00002146501E00F026F800206C6070BD0120C6
:100D100070BD000018000020240000200C4882B0A4
:100D2000016841F080510160006800F0805000903F
:100D30000748001D016841F48041016000680022FD
:100D40000F2100F480400090901E02B000F002B825
:100D50004038024070B5102A14460D46064603D3AB
:100D6000AA2113A001F0F7F9102D03D3AB2110A095
:100D700001F0F1F91D480068C0F30223C3F1070236
:100D8000042A00D90422181D072801D2002300E0FC
:100D9000DB1E012101FA02F09940401E2840491E45
:100DA0009840214001433046BDE8704000F06EBDE0
:100DB0002E2E2F447269766572732F53544D333241
:100DC000463778785F48414C5F4472697665722F88
:100DD0005372632F73746D3332663778785F68614E
:100DE0006C5F636F727465782E6300000CED00E039
:100DF00070B5072804460BD0062C09D0052C07D067
:100E0000042C05D0032C03D0922108A001F0A3F9F3
:100E1000154904F007024FF6FF050868134B2840F8
:100E200040EA02201843086070BD00002E2E2F44B7
:100E30007269766572732F53544D33324637787822
:100E40005F48414C5F4472697665722F5372632F1D
:100E500073746D3332663778785F68616C5F636F87
:100E6000727465782E6300000CED00E00000FA0556
:100E70001848F8B5016841F0805101600068164CCF
:100E800000F080500090206840F480302060FFF730
:100E900005FF4FF47A76054605E000BFFFF7FEFE3A
:100EA000401BB0420FD86068C003F7D5206840F4FB
:100EB00000302060FFF7F2FE054606E0FFF7EEFE89
:100EC000401BB04201D90320F8BD60688003F5D50E
:100ED0000020F8BD40380240007000402DE9F04786
:100EE00005000C467ED02868401E0E2804D981A03B
:100EF00040F2DF2101F02FF914B3012C20D0022C95
:100F00001ED0032C1CD0042C1AD0052C18D0062C73
:100F100016D0072C14D0082C12D0092C10D00A2C73
:100F20000ED00B2C0CD00C2C0AD00D2C08D00E2C73
:100F300006D00F2C04D04FF438716EA001F00BF9DD
:100F40007A4F386800F00F00A04209D2386820F0CC
:100F50000F0020433860386800F00F00A0427ED1B7
:100F60002868734E810729D5400703D5306840F4BF
:100F7000E05030602878000703D5306840F46040C6
:100F80003060A868A0B1802812D0902810D0A02886
:100F90000ED0B0280CD0C0280AD0D02808D0E02825
:100FA00006D0F02804D04FF4417152A001F0D3F8DC
:100FB000A968306820F0F000084330602878C00746
:100FC0003ED0DFF86C816868A8F1080878B1012884
:100FD0001ED0022820D047A040F20B3101F0BBF810
:100FE000686800E03BE0012812D0022814D0D8F84D
:100FF00000008007002832DA6968306820F00300BA
:1010000008433060FFF74AFE804641F2883910E01D
:10101000D8F800008003EDE7D8F800008001E9E788
:10102000FFF73CFEA0EB0801494502D90320BDE8CB
:10103000F0876868316801F00C01B1EB800FEFD1E7
:10104000386800F00F00A0420BD9386820F00F007C
:1010500020433860386800F00F00A04201D0012022
:10106000E5E728784FF480544FF4A0574FF4C05868
:1010700040074FF4E05914D5E86860B1A0420AD0A7
:10108000B84208D0404506D0484504D04FF45271CC
:1010900018A001F060F8E968306820F4E0500843D7
:1010A00030602878000715D5286960B1A0420AD0C1
:1010B000B84208D0404506D0484504D00DA040F2C3
:1010C0004F3101F048F82869316821F4604141EA64
:1010D000C000306000F034F83168164AC1F30311E3
:1010E000515CC8401449086014480068FFF7F6FDD9
:1010F00000209CE72E2E2F447269766572732F5361
:10110000544D3332463778785F48414C5F447269BA
:101110007665722F5372632F73746D33326637782E
:10112000785F68616C5F7263632E6300003C02400D
:1011300008380240F02D0008240000201C00002088
:10114000154910B51548096811F00C0213D014495F
:10115000042A0FD0082A0ED10F4C241F22682368BE
:1011600002F03F025B0207D52068C0F38810A0FBA5
:10117000010106E0084610BD2168C1F38811A1FBFA
:1011800000010023FFF7B8F82168C1F30141491CB1
:101190004900B0FBF1F010BD083802400024F40013
:1011A00040787D012DE9F84F04004FF000077CD016
:1011B00020680F2804D9FFA040F2651100F0CBFF92
:1011C0002078DFF828A4AAF10408C007A8F10405D4
:1011D00058D060684FF480364FF4A02940B1B04237
:1011E00006D0484504D0F3A040F26B1100F0B3FFE5
:1011F000DAF800105046C1F38101012908D00068D7
:10120000C0F3810002280AD1D8F80000400206D5B8
:101210002868800336D560680028C8D032E060684E
:10122000B04203D1286840F4803009E008B1484555
:101230000DD0286820F480302860286820F48020B1
:101240002860606888B1FFF729FD064609E0286834
:1012500040F480202860E5E7FFF720FD801B64282C
:101260007ED828688003F7D50CE0FFF717FD064607
:1012700005E000BFFFF712FD801B6428F0D8286846
:101280008003F7D42078800754D5E06830B1012876
:1012900004D0C8A040F29D1100F05DFF20691F2816
:1012A00006D9C4A04FF4CF7100E095E000F053FFE1
:1012B000DAF80010504611F00C0F08D00068C0F3A7
:1012C000810002280AD1D8F80000400206D428681C
:1012D000800717D5E06801287ED113E0E068002878
:1012E000286817D040F001002860FFF7D7FC0646B9
:1012F00005E000BFFFF7D2FC801B0228B0D82868A9
:101300008007F7D52069296821F0F80141EAC0007B
:1013100028600FE020F001002860FFF7BFFC0646C0
:1013200005E000BFFFF7BAFC801B022898D82868A8
:101330008007F7D42078000735D5AC4E60696C364D
:10134000F0B1012806D09BA04FF4EF7100F003FF2D
:101350006069A8B13168B14641F00101316000E037
:101360005FE1FFF79BFC064605E000BFFFF796FC38
:10137000801B0228C2D8D9F800008007F6D512E0F9
:101380003168B14621F001013160FFF787FC064664
:1013900005E000BFFFF782FC801B0228AED8D9F819
:1013A00000008007F6D42078400777D5A06840B1C8
:1013B000012806D0052804D04FF402717DA000F06A
:1013C000CAFEDFF8289209F13809D9F80000C000F8
:1013D0000DD4D9F8001000E058E141F08051C9F86F
:1013E0000010D9F80000012700F0805000908048DC
:1013F0000168C90511D40168834641F48071016018
:10140000FFF74CFC064604E0FFF748FC801B64280D
:101410008CD8DBF80000C005F6D5744EA06868369D
:1014200001280AD008B1052811D0306820F0010049
:101430003060306820F0040002E0306840F00100C5
:101440003060A068A0B1FFF729FC83460CE030684B
:1014500040F004003060F0E7FFF720FCA0EB0B0148
:1014600041F28830814285D830688007F4D50EE09B
:10147000FFF714FC834607E0FFF710FCA0EB0B011D
:1014800041F28830814289D830688007F4D42FB186
:10149000D9F8001021F08051C9F80010A069002887
:1014A0007ED0012809D0022807D04FF4137141A043
:1014B00000F051FEA0690028F2D0DAF80000C0F375
:1014C000810002286DD0A069022807D0286820F08A
:1014D00080702860FFF7E2FB0446A5E0E06938B1C0
:1014E000B0F5800F04D033A040F2552100F033FE58
:1014F000206A801E3D2804D92EA040F2562100F01B
:101500002AFE606A3238B0F5BF7F04D929A040F2C4
:10151000572100F020FEA06A02280AD0042808D033
:10152000062806D0082804D04FF4167121A000F038
:1015300012FEE06A801E0D2804D91EA040F2592137
:1015400000F009FE206B801E052804D919A040F286
:101550005B2100F000FE286820F080702860FFF713
:101560009DFB064605E000BFFFF798FB801B0228A5
:1015700057D828688001F7D4D4E90921DFF874C06E
:10158000D4E9070694F830304F0894F82C10304313
:101590000CEB074444EA8212104340EA016001E088
:1015A00076E045E040EA0370C8F80000286840F0A3
:1015B000807021E02E2E2F447269766572732F534E
:1015C000544D3332463778785F48414C5F447269F6
:1015D0007665722F5372632F73746D33326637786A
:1015E000785F68616C5F7263632E63000838024045
:1015F000007000400000FFFF2860FFF74FFB04462B
:1016000005E000BFFFF74AFB001B022809D8286845
:101610008001F7D53CE000BFFFF740FB001B02282C
:1016200002D90320BDE8F88F28688001F4D42FE0A8
:10163000A169D8F80000012928D0E16900F48002EE
:101640008A4223D1216A00F03F028A421ED1626A97
:1016500047F6C0710140B1EB821F17D1A26A4FF06B
:10166000FF3300F4403103EB5202B1EB024F0DD1D6
:1016700094F82C1000F07062B2EB016F06D194F870
:10168000301000F0E040B0EB017F01D00120C9E74D
:101690000020C7E7401EB0F1807F10B501D30120C4
:1016A00010BD4FF0E02460610F21601700F0EEF8EC
:1016B0000020A0610721216110BDFEE710B596B0A2
:1016C00011491C226846FEF748FE0021684600F0DA
:1016D000B0FD0E4C1C220C491C31606007A8FEF7BF
:1016E0003CFE002107A800F0A4FD07491C22A060D1
:1016F0000EA83831FEF731FE00210EA800F099FD4A
:10170000206016B010BD00009C2D000800000020D5
:1017100010B586B014216846FEF738FE11480168FE
:1017200041F080010160016801F0800105910168CC
:1017300041F002010160006801220B4C032100F01E
:10174000020005902046FFF773FA012103200022D2
:101750008DE80700204603916946FFF793F806B02D
:1017600010BD00003038024000040240FEE7FEE7F2
:10177000012000F052FDFBE7054C4FF4FA75012102
:101780002046FFF725FA284600F047FDF7E700005E
:101790000004024010B5FFF787FA01F027FA01288C
:1017A00003D0BDE8104001F0ADB910BD30B593B025
:1017B00034216846FEF7EAFD14210DA8FEF7E6FD88
:1017C0002048016841F080510160006800F08050BD
:1017D00012901D48016841F44041016000680224F4
:1017E000192300F440401290012008934FF4D8755B
:1017F00082050104CDE90642CDE909540B94CDE9F7
:10180000000168460C94FFF7CDFC08B172B6FEE704
:10181000FFF72EFB08B172B6FEE70FAD00214FF4C3
:10182000A0524FF4805385E80E000F20CDE90D043F
:1018300007210DA8FFF752FB002801D072B6FEE782
:1018400013B030BD403802400070004005484FF0F2
:1018500000610368034A43F470030360803A116037
:101860007047000088ED00E0FEE700000FB4054B74
:1018700010B503A9044A029800F0EAF810BC5DF81C
:1018800014FB0000592100088800002009070028E7
:101890004FEA116104DB00F1E02080F8001470478A
:1018A00000F00F0000F1E02080F8141D704702E006
:1018B00008C8121F08C1002AFAD1704770470020DB
:1018C00001E001C1121F002AFBD170472DE9FF5F23
:1018D00082B00021DDE90430020DDDF840B00343A1
:1018E00018D044F61050A2F2FF324243151411985A
:1018F00001281FD0A5EB0B00401C5FEA000A4FF047
:1019000000064E4FDFF83891B046504615D5CAF163
:10191000000413E0119801244AA3012801D16FEAC1
:101920000B010298119AC0E90031C0E9024206B0E9
:10193000BDE8F09FCBF10000DFE704460021404AFC
:10194000491842EB0450CDE9001012E0E00707D03F
:1019500032463B4640464946FEF7FFFD80468946F3
:1019600032463B4610461946FEF7F7FD06460F463F
:101970006410002CEAD1DDE90401DDE90023BAF1AD
:10198000000F06DAFEF7E9FD42464B46FEF7E5FD9D
:1019900005E0FEF754FE42464B46FEF750FE044675
:1019A0000E460022284BFEF7D1FE03D84FF0FF3041
:1019B000014607E00022254B20463146FEF726FD72
:1019C000FEF7ACFE102409E0002C0ADB0A220023FB
:1019D000FEF792FC039B30321A55641E50EA010256
:1019E000F2D1641C039AC4F111031444119A012A20
:1019F00003D0012208430DD10AE0084304D000209F
:101A00004FF0110B119072E7A3EB0B056D1E0DE06B
:101A10005B4504DD4FF0000205F1010504E003DA47
:101A20004FF00002A5F10105002AECD002981199AF
:101A3000C0E90231C0E9004579E700000000144028
:101A40000000F03F300000000000F0430000E03FE5
:101A50002DE9FF4F95B09A46884606460025EEE1EF
:101A6000252877D100242746F94A0121039400E074
:101A7000044316F8013F203B01FA03F01042F7D16E
:101A800030782A2811D06FF02F033078A0F130027F
:101A9000092A16D8039A44F0020402EB820203EBEF
:101AA00042021044761C0390EFE758F8042B03928F
:101AB000002A03DA504244F40054039044F0020434
:101AC000761C30782E2816D116F8010F44F0040445
:101AD0002A280DD06FF02F023078A0F13003092BA7
:101AE00009D807EB870302EB4303C718761CF3E71B
:101AF00058F8047B761C30786C280FD006DC4C2814
:101B000017D068280DD06A2814D104E0742810D0AA
:101B10007A280FD10DE044F400140AE044F4801454
:101B200001E044F440147278824202D104F580143A
:101B3000761C761C307866280BD013DC582877D0BA
:101B400009DC002875D04528F6D04628F4D047286F
:101B50001AD193E118E0632835D0642879D065283C
:101B600012D18BE1702873D008DC6728F1D0692886
:101B70006FD06E280DD06F2806D1ACE073282CD022
:101B8000752874D0782853D05246179990476D1C09
:101B900054E1C4F30250022809D003280DD0D8F82C
:101BA000001004280DD00D6008F1040846E1D8F8B3
:101BB0000010EA17C1E90052F6E7D8F800100D80CE
:101BC000F2E70D70F0E718F8041B8DF80010002004
:101BD0008DF80100EB46012003E058F804BB4FF0FC
:101BE000FF3061074FF0000102D40DE009F101015F
:101BF0008946B9420FDA8145F8DB1BF80910002944
:101C0000F4D108E009F1010189468142FADB1BF8B1
:101C100009100029F6D103985346A0EB0907214685
:101C20003846179A00F080FA284400EB090507E0CF
:101C300044E008E10DE01BF8010B5246179990476C
:101C4000B9F10109F7D2534621463846179AF2E016
:101C500039E00A21C4F302524FF0000B0091022A2E
:101C600006D058F8040BC117032A09D00AE023E074
:101C700008F1070020F00702F2E80201904605E0B3
:101C800000B2C117042A01D140B2C117002906DAF7
:101C90000A460021404261EB02012D2202E02205AA
:101CA00004D52B228DF80420012203E0E20701D0A5
:101CB0002022F7E7914657E00A2100E010214FF07B
:101CC000000B00910BE010214FF0000B44F00404D6
:101CD0000827009103E008204FF0000B0090C4F3A8
:101CE0000252022A05D058F8040B0021032A08D01A
:101CF00008E008F1070020F00702F2E80201904630
:101D000003E080B2042A00D1C0B24FF000092207DC
:101D10002AD53278702A07D0DDF800C08CF0100C7C
:101D20005CEA0B0C05D00EE040228DF80420012265
:101D300008E050EA010306D030238DF804308DF816
:101D4000052002229146009B83F0080353EA0B030F
:101D50000AD150EA010201D1620705D530228DF87F
:101D600004204FF001097F1E3278582A04D039A28E
:101D70000C920CAA02920BE03BA2F9E75B46009A98
:101D8000FEF7BAFA0C9B9B5C029A521E02921370E9
:101D900050EA0102F2D1029804A9081A00F1200BBE
:101DA000600702D524F4803400E001275F4502DD9E
:101DB000A7EB0B0000E0002000EB0B010090039864
:101DC0004944401A0390E00306D453462146179A2B
:101DD000039800F0A9F90544002706E001A852463F
:101DE000C05D179990476D1C7F1C4F45F6DBE003E3
:101DF0000CD553462146179A039800F095F90544EF
:101E000004E030205246179990476D1C0099481EF7
:101E100000900029F5DC08E002980299524600780B
:101E2000491C0291179990476D1CBBF10001ABF161
:101E3000010BF1DC5BE100F065F90544761C3078BC
:101E400000287FF40DAE19B02846BDE8F08F0000E1
:101E50000928010030313233343536373839616280
:101E60006364656600000000303132333435363744
:101E7000383941424344454600000000600700D421
:101E8000062708F1070020F00700F0E8022380464B
:101E900003F0004C5FEA0C0001D097A009E0200598
:101EA00001D596A005E0E00701D095A001E0AFF2D2
:101EB0004C001390307823F0004365280CD006DCEA
:101EC000452809D046281DD047287FD13BE0662809
:101ED00018D067287AD136E00021112F01DB1120BC
:101EE00000E0781CCDE9000104A90CA8FFF7EEFC86
:101EF000DDE90D010C9A4FF0000B07F1010910927A
:101F000000914EE04FF000400097CDE9011004A988
:101F10000CA8FFF7DBFCDDE90D020C9B0F994FF0DD
:101F2000000B91461093009211B9791C00EB010946
:101F3000B7EB090003D4C0F1FF3B07F10109A9EB9E
:101F40000700019042E0012F00DA01270021112F44
:101F500001DD112000E03846CDE9000104A90CA8FC
:101F6000FFF7B4FCDDE90D010C9A00914FF0000B76
:101F7000B946109221070FD4009A4A4503DA9146D8
:101F800001E0A9F10109B9F1010F05DD109AA9F1EC
:101F90000101515C3029F4D0B84202DA10F1040F8B
:101FA00003DA0121CDE9011010E0002803DC8344AD
:101FB000A9EB000102E0411C494500DD8946A0EB88
:101FC0000B00401C01904FF000400290200705D408
:101FD0000198484502DB4FF0FF30019000208DF85A
:101FE0004B0002980DF14B07B0F1004F25D00220B5
:101FF0000C902B200D90029800280CDA40420290A1
:102000002D200D9007E00A210298FEF7CAF9303121
:10201000029007F8011D0C99481E0C900029F2DC73
:1020200002980028EFD1791E0D980870307800F0E2
:10203000200040F0450007F8020D11A8C01BC01D8C
:1020400002901398007800B1012000EB090101987B
:1020500001EBE071029801440398401A401E03907E
:10206000E00306D453462146179A039800F05CF823
:1020700005441398007818B15246179990476D1C83
:10208000E00323D553462146179A039800F04CF8F5
:1020900005441BE0BBF1000F07DB0098584504DD49
:1020A0001098179910F80B0001E01799302052464C
:1020B000904701980BF1010B401E05F101050190BD
:1020C00004D12E205246179990476D1CB9F100019A
:1020D000A9F10109DEDC05E017F8010B524617995A
:1020E00090476D1C0299481E02900029F4DC53466B
:1020F0002146179A03989EE62D0000002B00000051
:10210000200000002DE9F041044600251E46174638
:10211000880404D405E039462020B0476D1C641EB5
:10212000F9D52846BDE8F0812DE9F04104460025A7
:102130001E469046C80301D5302700E020278804BA
:1021400004D505E041463846B0476D1C641EF9D5FC
:102150002846BDE8F081704708490968C90705D0DD
:10216000064A803A11051268D20701D1704700BFB4
:102170000A68002AFBD0087070470000800E00E05B
:10218000BFF34F8FBFF36F8F1E4900200860BFF36E
:102190004F8FBFF36F8F1C4A116841F400311160FB
:1021A000BFF34F8FBFF36F8F174970310860BFF3D4
:1021B0004F8F081F43F6FF740068124D1035C0F3AF
:1021C0004E31C0F3C90304EA4116184646EA807747
:1021D0002F60401EFAD2491EF5D2BFF34F8F106810
:1021E00040F480301060BFF34F8FBFF36F8FFEF766
:1021F00063FDFFF7DBFAFFF78BFAFFF75FFA00F0FA
:1022000013F8FEE750EF00E014ED00E084280146EB
:102210004FF0000000D0C81C704710B500B9012075
:1022200000F06CFB002010BD10B500F08FFB00200B
:1022300010BD7FB50D4641690446B0F9080081B173
:10224000A16971B1FFF7E2FFD4E905122B468DE8D1
:1022500007002269D4E9001000F099FC039004B053
:1022600070BDFFF7D3FF03A92B46CDE90001228AF9
:10227000D4E9001092B200F05DFC012801D00020EA
:10228000EDE70398EBE700002DE9F041184C0F460D
:10229000054666692068001D00F05EFA38B92268BC
:1022A0000121A06992F82C2091408843A061681C0C
:1022B00007D137B12168BDE8F0410E48091D00F093
:1022C00092BA20683544B5424560216805D2A068BD
:1022D000091DBDE8F04100F06EBA6068091D00F00C
:1022E0006AFA206B854200D22563BDE8F0810000C8
:1022F00028000020BC0300202DE9F041054600F035
:102300007FFA2E4C2E4F2069401C2061206810B1AE
:10231000E06940B32DE025602069012829D100261D
:1023200006EB860007EB800000F037FA761C072EDC
:10233000F6D323488C3000F030FA2148A03000F06A
:102340002CFA1F48B43000F028FA1D48C83000F0BD
:1023500024FA1B48DC3000F020FA19488C30606009
:102360001430A06005E0E86A2168C96A814200D89B
:1023700025600120E16A491CE162E96AA26988409E
:102380001043A06101EB8100291D07EB800000F0E4
:102390002AFA00F059FAE06900280CD02068E96AAE
:1023A000C06A884207D207494FF080500860BFF3E7
:1023B0004F8FBFF36F8FBDE8F08100002800002031
:1023C000E002002004ED00E010B5044690F8510052
:1023D00068B101280ED0022811D0502072B680F3C7
:1023E0001188BFF34F8FBFF36F8F62B6FEE7206B8C
:1023F00000F040FA2046BDE8104000F03BBA10BDA6
:1024000011484FF4705110B5420706D00E49C01D57
:1024100020F00700411AC1F570510C4C0023014413
:102420000839A4F1100221F00701C4E900030C1AD5
:1024300011604B600B60C0E9001494604FF00041E4
:102440005460D16010BD0000D00300207400002053
:10245000144E4FF08058144CDFF85090A6F1C80786
:1024600012E000BF00F0CCF9F068C568281D00F04C
:1024700073F92069401E2061E068401EE06000F0B2
:10248000E3F92846FFF7A0FFE0680028EAD13868A2
:102490000128F9D9C9F80080BFF34F8FBFF36F8FC0
:1024A000F2E70000A80300202800002004ED00E06F
:1024B0002DE9F0479A4681466FF00303DDE9098470
:1024C00003EB8202089E206B104420F00707780778
:1024D00009D0502072B680F31188BFF34F8FBFF33D
:1024E0006F8F62B6FEE74FF0000561B10020231840
:1024F0000A5C83F834200A5C12B1401C1028F6D321
:1025000084F8435001E084F83450072E00D30626A7
:10251000E662201DC4E9116500F04AF904F11800D3
:1025200000F046F9E564C6F10700A06184F8505058
:102530005246246149463846646200F0C9F8B8F151
:10254000000F206001D0C8F80040BDE8F08700000F
:1025500030B5114900E011460A688242FBD34B684E
:102560005C18844203D14468084623444B604368A6
:102570001D18954209D1084C103C2468A24209D08C
:1025800052681A4442600A6812680260814200D0B0
:10259000086030BD0460F9E7740000200648416817
:1025A000096829B14168C968C96849680163704709
:1025B0004FF0FF31FAE70000280000200A48406889
:1025C000401C4FF0500072B680F3118805D0BFF365
:1025D0004F8FBFF36F8F62B6FEE7BFF34F8FBFF32E
:1025E0006F8F62B6FEE700007C0000202DE9F0410D
:1025F0000027044600F0E2F9344E306808B9FFF7CE
:10260000FFFEF06804424FD1E4B30834600710D0F5
:1026100004F00700C0F108000444600709D050200E
:1026200072B680F31188BFF34F8FBFF36F8F62B61E
:10263000FEE73CB37068844236D824481030014627
:102640000D6801E028460D466968A14202D229685A
:102650000029F7D131688D4226D0076829680160CA
:1026600008376868011B102911D9281942070AD0B8
:10267000502072B680F31188BFF34F8FBFF36F8F76
:1026800062B6FEE710E041606C60FFF761FF6968C9
:102690007068401A7060B268904200D2B06000204A
:1026A000F2681143C5E9000100F014FB780709D076
:1026B000502072B680F31188BFF34F8FBFF36F8F36
:1026C00062B6FEE73846BDE8F081000064000020F5
:1026D00070B5041F094E231F4FF0807521F00101D2
:1026E00025601C1F1960A0F120010B1F26604438D3
:1026F0000A606FF002051D6070BD0000BD25000876
:102700002DED028B0A4C4FF47A759FED0A8B00BFBA
:1027100094ED040B09A030EE080B84ED040B53EC90
:10272000102BFFF7A3F82846FFF777FDF0E700002E
:102730000000002000000040E17A843F666C6F6179
:10274000745F6E756D2076616C75652069733A20D3
:10275000252E34660D0A0000D0E9013201699A6025
:10276000D0E901235A604A68824201D182684A60F6
:10277000002202610868401E086008687047000077
:1027800010B5044C8023046004F154000860136009
:1027900010BD00008C00002070474FF0FF3300F1A7
:1027A00008010022C0E901130260C16001617047A5
:1027B00000210161704730B50B685A1C02D000F14E
:1027C000080202E0026904E02246546825689D423E
:1027D000FAD953684B6099608A605160086101685A
:1027E000491C016030BD42684A6093688B60936801
:1027F0005960916008610168491C016070470000E0
:10280000502072B680F31188BFF34F8FBFF36F8FE4
:102810000B4962B64868401C486001280ED109483F
:10282000006810F0FF0F09D0502072B680F31188B5
:10283000BFF34F8FBFF36F8F62B6FEE770470000A4
:102840007C00002004ED00E00949486828B1401EE2
:10285000486001D180F311887047502072B680F330
:102860001188BFF34F8FBFF36F8F62B6FEE7000092
:102870007C00002070B500282BD0164DA0F1080474
:102880006068E968084209D1502072B680F3118867
:10289000BFF34F8FBFF36F8F62B6FEE722684AB176
:1028A000502072B680F31188BFF34F8FBFF36F8F44
:1028B00062B6FEE78843606000F080F8606869688F
:1028C000084468602046FFF743FEBDE8704000F012
:1028D00001BA70BD640000204FF0E02000210161CA
:1028E0004FF47A728161072303490968B1FBF2F161
:1028F000491E41610361704724000020020010B5A9
:1029000016D01048806B48B1502072B680F3118801
:10291000BFF34F8FBFF36F8F62B6FEE700F04EF844
:1029200000211046FFF7B0FC00F0D4F9002807D1D1
:1029300005494FF080500860BFF34F8FBFF36F8F92
:1029400010BD00002800002004ED00E010B586B0A6
:10295000002405AA04A9039403A80494FFF710FF18
:10296000DDE9030100940023CDE9011011480FA116
:10297000059A00F00CF910490028486313D0502044
:1029800072B680F31188BFF34F8FBFF36F8F62B6BB
:1029900001224FF0FF300863CA614C6106B0BDE808
:1029A000104000F04FB806B010BD000049444C453F
:1029B0000000000051240008280000200248816B1C
:1029C000491C8163704700002800002010B51B4C93
:1029D000A06B10B10120606210BD00206062206811
:1029E00021680068096B884204D821682068343166
:1029F000FFF7D2FE1248A169B1FA81F1C1F11F01BE
:102A000001EB810150F821206AB100EB810000F157
:102A10000802416849684160914201D149684160BA
:102A2000C868206010BD502072B680F31188BFF3D3
:102A30004F8FBFF36F8F62B6FEE7000028000020C3
:102A4000E00200202B49FF201CB50A780192087093
:102A500008788DF800009DF800209DF8000002F035
:102A6000F002824209D0502072B680F31188BFF381
:102A70004F8FBFF36F8F62B6FEE79DF800200720EF
:102A80001D4C02F050022270A06005E09DF800206D
:102A900052008DF80020401E9DF800201206F5D44B
:102AA0000328A06009D0502072B680F31188BFF3CC
:102AB0004F8FBFF36F8F62B6FEE74FF44070A06098
:102AC000019808700D48016841F4700101600168C7
:102AD00041F070410160FFF7FFFE00206060FDF7EC
:102AE000BBFB0748016841F040410160FDF7A0FBD6
:102AF00000201CBD00E400E07C00002020ED00E090
:102B000034EF00E0502010B572B680F31188BFF3A7
:102B10004F8FBFF36F8F62B600F076F818B104499B
:102B20004FF080500860002080F3118810BD000035
:102B300004ED00E02DE9FF5F994616468A4683467C
:102B40009000DDE90E87FFF751FD05001CD05420F1
:102B5000FFF74CFD040014D00020256384F85100D9
:102B60004B46CDE90087CDE90240324651465846F2
:102B7000FFF79EFC2046FFF7BFFB012004B0BDE835
:102B8000F09F2846FFF776FE4FF0FF30F6E7F0B5EE
:102B900085B0DDE90B740A9DA7B1ECB1542627631B
:102BA000022684F85160002703970DF1100C009560
:102BB000CDE901C4FFF77CFC2046FFF79DFB04989C
:102BC00005B0F0BD502072B680F31188BFF34F8F6F
:102BD000BFF36F8F62B6FEE7502072B680F31188A4
:102BE000BFF34F8FBFF36F8F62B6FEE70548C16931
:102BF00019B1806B18B10020704701207047022086
:102C000070470000280000202DE9F0412F4CA06BF8
:102C1000002740B1206A401C2062606A00B1012791
:102C20003846BDE8F0816669761C666115D160683A
:102C3000006848B1502072B680F31188BFF34F8FFF
:102C4000BFF36F8F62B6FEE76068A1686160A06045
:102C5000A06A401CA062FFF7A1FCDFF87480206B23
:102C6000864209D36068006880B16068C068C56842
:102C7000686886420DD220632068C06A00EB80013C
:102C800058F821000128C8D90127C6E74FF0FF30C6
:102C9000F1E7281DFFF760FDA86A18B105F11800DB
:102CA000FFF75AFDE86A0121A26981401143A16141
:102CB00000EB800108EB8100291DFFF794FD2068DF
:102CC000E96AC06A8142CDD30127CBE72800002002
:102CD000E00200202DE9F0472D4DA86B0024264688
:102CE00038B1FFF78DFDA86B401EA863A86B50B1EB
:102CF00049E0502072B680F31188BFF34F8FBFF3C5
:102D00006F8F62B6FEE7234F01202969D9B3A7F17F
:102D1000B40980463868E8B1F868C46804F118005E
:102D2000FFF71AFD201DFFF717FDE16AAA6908FAEF
:102D300001F01043A86101EB810109EB8100211D25
:102D4000FFF751FD2968E06AC96A8842E2D3C5F8F5
:102D50002480DFE70CB1FFF721FC2C6A44B1474621
:102D6000FFF752FF00B16F62641EF9D100202862A4
:102D7000686A40B1084901264FF080500860BFF3EF
:102D80004F8FBFF36F8FFFF75FFD3046BDE8F087D1
:102D9000280000209403002004ED00E00C2E000821
:102DA0007117000800000000000000008000000013
:102DB0000000000000000000002E00087917000845
:102DC000FEFF000000000000800000000000000086
:102DD00000000000182E000801270008FFFF000077
:102DE0000000000080000000000000000000000063
:102DF00000000000000000000102030406070809AB
:102E00006D795461736B3032000000006465666157
:102E1000756C745461736B00746573745F74617363
:102E20006B000000442E0008000000208C00000011
:102E3000AE180008D02E00088C000020444300008B
:102E4000BE180008000000000000000000000000A4
:102E50000000000000000000000000000100000071
:102E600010000000000000000024F400000000003A
:102E70000000000000000000000000000000000052
:102E80000000000000000000000000000000000042
:102E90000000000000000000000000000000000032
:102EA0000000000000000000000000000000000022
:102EB0000000000000000000000000000000000012
:102EC00000000000AAAAAAAA00000000000000005A
:04000005080001F9F5
:00000001FF
