:020000040800F2
:100000006806002069020008F30D00087703000865
:10001000F10D00086F030008D10F00080000000078
:10002000000000000000000000000000E90E0008D1
:100030007503000800000000270E0008EB0E000802
:10004000830200088302000883020008830200087C
:10005000830200088302000883020008830200086C
:10006000830200088302000883020008830200085C
:10007000830200088302000883020008830200084C
:10008000830200088302000883020008830200083C
:10009000830200088302000883020008830200082C
:1000A000830200088302000883020008830200081C
:1000B000830200088302000883020008830200080C
:1000C00083020008830200088302000883020008FC
:1000D00083020008830200088302000883020008EC
:1000E00083020008830200088302000883020008DC
:1000F00083020008830200088302000883020008CC
:1001000083020008830200088302000883020008BB
:1001100083020008830200088302000883020008AB
:1001200083020008830200087103000883020008AC
:10013000830200088302000883020008830200088B
:10014000830200088302000883020008830200087B
:10015000830200088302000873030008830200087A
:10016000830200088302000883020008830200085B
:10017000830200088302000883020008830200084B
:10018000830200088302000883020008830200083B
:10019000830200088302000883020008830200082B
:1001A000830200088302000883020008830200081B
:1001B000830200088302000883020008830200080B
:1001C000830200088302000800F002F800F03CF807
:1001D0000AA090E8000C82448344AAF10107DA45A2
:1001E00001D100F031F8AFF2090EBAE80F0013F0B8
:1001F000010F18BFFB1A43F001031847CC0E000093
:10020000EC0E0000103A24BF78C878C1FAD8520723
:1002100024BF30C830C144BF04680C607047000080
:100220000023002400250026103A28BF78C1FBD8FF
:10023000520728BF30C148BF0B6070471FB500F0A0
:100240002DFF1FBD10B510BD00F058F81146FFF787
:10025000F5FF00F0DDFE00F076F803B4FFF7F2FFE3
:1002600003BC00F07DF800000948804709480047BA
:10027000FEE7FEE7FEE7FEE7FEE7FEE7FEE7FEE756
:10028000FEE7FEE704480549054A064B70470000B3
:10029000B50F0008C90100086800002068060020AA
:1002A00068020020680200204FF0000200B51346EB
:1002B00094469646203922BFA0E80C50A0E80C5086
:1002C000B1F12001BFF4F7AF090728BFA0E80C5037
:1002D00048BF0CC05DF804EB890028BF40F8042B30
:1002E00008BF704748BF20F8022B11F0804F18BF9D
:1002F00000F8012B7047704770477047754600F053
:100300002BF8AE4605006946534620F007008546A7
:1003100018B020B5FFF7B6FFBDE820404FF000064B
:100320004FF000074FF000084FF0000B21F00701DD
:10033000AC46ACE8C009ACE8C009ACE8C009ACE820
:10034000C0098D46704710B50446AFF300802046C3
:10035000BDE81040FFF781BF00487047040000204F
:1003600001491820ABBEFEE7260002007047FEE7F9
:10037000704770477047FEE7044908B50A680243B2
:100380000A6009680140009108BD00003038024051
:10039000034A1430515C0A5822F004020A50704794
:1003A000A6100008034B595C435823F060631343C5
:1003B00043507047A6100008034B595C435823F084
:1003C000C003134343507047A6100008034B595C09
:1003D000435823F48063134343507047A61000082A
:1003E000034B595C435823F4C043134343507047B5
:1003F000A6100008034B595C435823F49073134331
:1004000043507047A6100008034B595C435823F42F
:100410000073134343507047A6100008034B595C08
:10042000435823F4C053134343507047A6100008A9
:10043000034B595C435823F44033134343507047F4
:10044000A61000082DE9F047054687480E4685426C
:1004500021D0864885421ED0854885421BD08548DC
:10046000854218D08448854215D08448854212D0F0
:10047000834885420FD0834885420CD0824885420C
:1004800009D08248854206D08148854203D0CE21DA
:1004900080A000F0BCFD30684FF6FE71401E88421F
:1004A00003D9CF217BA000F0B2FD706848B10128CC
:1004B00007D0022805D0032803D0D02175A000F072
:1004C000A6FD306938B1012805D0022803D0D1211A
:1004D00070A000F09CFD30684FF00F0A4FF0030948
:1004E00090FAA0F0B0FA80F7B6E00120B8400440DE
:1004F0007DD07068012801D002282DD1B06848B1A4
:10050000012807D0022805D0032803D0E22161A0EA
:1005100000F07DFD94FAA4F0A96894FAA4F3B0FA6F
:1005200080F0B3FA83F34FEA400CB0685B0009FA3D
:100530000CF2984091430143A960F06828B101286A
:1005400003D0E82153A000F062FD6968F2683068CA
:10055000814342431143696094FAA4F0E96894FA34
:10056000A4FCB0FA80F0BCFA8CFC4300306909FAB4
:1005700003F24FEA4C03914398400143E9607068ED
:10058000022855D1706908B301281FD002281DD058
:1005900003281BD0042819D0052817D0062815D009
:1005A000072813D0082811D009280FD00A280DD009
:1005B0000B280BD00C2809D00D2807D00E2805D009
:1005C0000F2803D0F42133A000F021FD94FAA4F009
:1005D000B0FA80F0082816D294FAA4F02A6A94FAA5
:1005E000A4FCB0FA80F1BCFA8CFC890000E032E097
:1005F00070694FEA8C0C0AFA01F39A4300FA0CF086
:1006000002432A6214E0696A200A90FAA0F390FA81
:10061000A0FC7069B3FA83F3BCFA8CF84FEA830C40
:100620004FEA88030AFA0CF2984091430143696249
:1006300094FAA4F0296894FAA4F4B0FA80F37068EC
:10064000B4FA84F44FEA430C630009FA0CF29840C0
:100650009143014329607F1C30680446F8407FF4D1
:1006600044AFBDE8F08700000000024000040240F3
:1006700000080240000C024000100240001402403A
:1006800000180240001C02400020024000240240EA
:10069000002802402E2E2F447269766572732F5304
:1006A000544D3332463778785F48414C5F44726925
:1006B0007665722F5372632F73746D333266377899
:1006C000785F6C6C5F6770696F2E63004FF47A72AD
:1006D0004FF0E021B0FBF2F000230522401E4861FC
:1006E0008B610A617047000070B52C4EC0284FF432
:1006F00000454FF0000431D0B0F5407F22D0B0F576
:10070000405F13D0B0F5404F05D04FF4D67124A010
:1007100000F07DFC40E000F065F82F4940182ED035
:10072000B0F5804F2FD0A84222D131E000F05AF826
:100730002A49401823D0B0F5805F24D0B0F5005F7F
:1007400016D125E000F04EF82549401817D0B0F535
:10075000807F18D0B0F5007F0AD119E000F042F890
:100760004038B0F540000AD040280CD080280FD087
:1007700000F084FB00F058FB00F064FB01E000F0A7
:100780007DFB044608E000F0BBF828B1344603E0E6
:1007900000F0BEF800B12C46204670BD0024F400E5
:1007A0002E2E2F447269766572732F53544D333257
:1007B000463778785F48414C5F4472697665722F9E
:1007C0005372632F73746D3332663778785F6C6C55
:1007D0005F7263632E63000000C0FF3F00F0FFCF35
:1007E00000FFFFFC02490968014041EA00407047F0
:1007F0009038024070B52E4D03284FF400464FF05C
:10080000000434D00C2821D0302814D0B0F5406F2B
:1008100005D028A040F2211100F0F9FB45E000F0DE
:1008200067F83249401833D0B0F5806F34D0B0F556
:10083000006F26D135E000F05BF81038B0F54010BD
:1008400026D0102828D020280AD12AE000F050F81D
:10085000001FB0F540201BD004281DD0082820D050
:1008600000F00CFB00F0E0FA00F0ECFA12E000F00F
:100870003FF86FF4403140180AD001280CD002280C
:100880000FD000F0FBFA00F0CFFA00F0E9FA01E037
:1008900000F0F4FA044608E000F032F828B12C46E3
:1008A00003E000F035F800B13446204670BD00008A
:1008B0000024F4002E2E2F447269766572732F5334
:1008C000544D3332463778785F48414C5F44726903
:1008D0007665722F5372632F73746D333266377877
:1008E000785F6C6C5F7263632E63000000FCFFF343
:1008F00002490968014041EA0040704790380240CF
:1009000002480068C0F34000704700000038024011
:1009100002480068C0F34000704700007038024091
:100920000248006800F03F007047000004380240B1
:100930000248006800F4800070470000043802405C
:100940000149086070470000000000202DE9F05FB9
:10095000774F0126DFF8DC910D46DFF8DCA1B842C5
:10096000DFF8D8B1044615D04C4513D0544511D00A
:100970005C450FD0724884420CD07248844209D042
:100980007148844206D07148844203D0D92170A0B6
:1009900000F03DFB7D492868884203D9DA216CA02C
:1009A00000F035FB68684FF48058B0F1805F06D0E6
:1009B00028B1404503D0DB2165A000F028FBA868E2
:1009C00040450AD048B1B0F5405F06D0B0F5005FB1
:1009D00003D0DC215EA000F01AFBE86848B1B0F556
:1009E000806F06D0B0F5C06F03D0DD2158A000F0B5
:1009F0000EFB286948B1042807D0082805D00C2828
:100A000003D0DE2152A000F002FB686960B1B0F5AE
:100A1000807F09D0B0F5007F06D0B0F5407F03D0CD
:100A2000DF214BA000F0F3FAA86930B1B0F5004F18
:100A300003D0E02146A000F0EAFA206810F0010F90
:100A400064D1D5E90382D5F818C06868216842EA04
:100A50000C024F4B40EA0800104319400843206045
:100A60006168A86821F4405101436160A168686928
:100A700021F440710143A160BC4201D1032016E082
:100A80004C4501D10C2012E0544501D130200EE03C
:100A90005C4501D1C02018E02948844202D14FF4BE
:100AA000407012E02748844204D14FF44060FFF7C1
:100AB000A1FE0CE02448844202D14FF4405004E0EF
:100AC0002248844222D14FF44040FFF70DFEE8B1A6
:100AD0002968D9B1AA690026B2F5004F19D000EBF8
:100AE0005100B0FBF1F080B2E060E068102804D261
:100AF00017A04FF49B7100F08AFAE068B0F5803FD0
:100B000004D313A040F2391100F081FA3046BDE859
:100B1000F09F40004FF6F07200EB5100B0FBF1F097
:100B200081B201EA0200C1F342010843DCE70000A0
:100B3000001001400044004000480040004C0040CC
:100B4000005000400014014000780040007C00404C
:100B50002E2E2F447269766572732F53544D3332A3
:100B6000463778785F48414C5F4472697665722FEA
:100B70005372632F73746D3332663778785F6C6CA1
:100B80005F75736172742E6300000000C0FC9B01EE
:100B9000F369FFEF144838B5016841F48001016042
:100BA0000068124C00F4800000902068002211467A
:100BB000C0F3022000F01EF901463A2000F016FAB8
:100BC0003A2000F006FA206800221146C0F3022005
:100BD00000F010F90146462000F008FABDE8384060
:100BE000462000F0F6B90000303802400CED00E07D
:100BF00030B587B018216846FFF756FB0420FFF791
:100C0000BBFB8020FFF7B8FB0120FFF7B5FB0820F6
:100C1000FFF7B2FB0B4802058261110C0091002422
:100C200069460125CDE9015403940494FFF70AFCB9
:100C300005486946CDE900540494FFF703FC07B06A
:100C400030BD000000080240000C02402DE9F047D2
:100C50008EB01C2106A8FFF727FB18216846FFF776
:100C600023FB5F480125016821F0030141F00101E8
:100C700001605B484C38016841F010010160006878
:100C800000F010000D9056486038016841F00101F5
:100C900001600068022603274FF0070800F00100FA
:100CA0000D906802CDF814800024DFF838A18DE89B
:100CB000C100CDE9035469465046FFF7C3FB4FF42A
:100CC0008069CDF80090CDF814806946CDE90354D1
:100CD000CDE901675046FFF7B5FB434EED06022113
:100CE0002A463046FFF75EFB002230460221FFF71E
:100CF00063FB002230460221FFF79AFB00223046B8
:100D00000221FFF777FB002230460221FFF77CFB30
:100D100002214A463046FFF759FB002230460221A5
:100D2000FFF77CFB002230460221FFF759FB02212E
:100D30003046FFF72DFB07212A463046FFF732FBEE
:100D4000402230460721FFF737FB002230460721BB
:100D5000FFF76EFB002230460721FFF74BFB002216
:100D600030460721FFF750FB07214A463046FFF780
:100D70002DFB002230460721FFF750FB00223046B2
:100D80000721FFF72DFB07213046FFF701FB0C2160
:100D90004FF4E130CDE906040894CDE909410C9403
:100DA00006A9124C2046FFF7D1FD206820F4006010
:100DB0002060A06840F48050A060A06820F400503B
:100DC000A060606820F490406060A06820F02A0075
:100DD000A060206840F0010020600EB0BDE8F08700
:100DE00090380240000002400064024000100140C0
:100DF000FEE7FEE730B500F00703C3F10704042C5B
:100E000000D90424181D072801D2002300E0DB1EAE
:100E1000012505FA04F09D40401E08406D1E9840D3
:100E20001540284330BD704704490968044A01F061
:100E3000F0010909515CC8407047000008380240C1
:100E4000AE10000804490968044A01F4E05102EBBD
:100E500091210978C840704708380240BE10000848
:100E600004490968044A01F4604102EB51310978F0
:100E7000C840704708380240BE10000806490748BD
:100E8000096811F00C0106D0042903D0082902D109
:100E900000F008B802487047083802400024F40007
:100EA00040787D0110B5FFF743FD0C4C18B1B0F54B
:100EB000800F00D10A4CFFF733FD0A490A680B681E
:100EC000B4FBF0F0C2F3881103F44032012348432D
:100ED00003EB12414900B0FBF1F010BD0024F40017
:100EE00040787D0104380240704770472B4810B5A8
:100EF000016821F00F0141F007010160016801F074
:100F00000F010729FAD12649086840F440400860DB
:100F10000A68244842F480320A60016841F4803152
:100F200001600168C1F340410029FAD01D4A1E4901
:100F3000121D1E4C1368234019431160016841F0D3
:100F4000807101600168C1F340610029FAD0154841
:100F50000830016821F0F0010160016821F4E051DE
:100F600041F4A0510160016821F4604141F4004165
:100F70000160016821F0030141F002010160016894
:100F800001F00C010829FAD1094C2046FFF79EFB1D
:100F90002046BDE81040FFF7D3BC0000003C0240F3
:100FA0000070004000380240196C40000080BCFF17
:100FB00000E6DF0C05484FF000610368034A43F484
:100FC00070030360803A11607047000088ED00E014
:100FD000FEE7002809DB410900F01F02890001201B
:100FE00001F1E0219040C1F8000170470907002895
:100FF0004FEA116104DB00F1E02080F80014704733
:1010000000F00F0000F1E02080F8141D70477047D9
:101010001E4808B5016841F080510160006800F089
:10102000805000901948001D016841F48041016022
:1010300000684FF6FF03164900F480400090154AFF
:101040000868184040F44070104308600868C0F316
:101050000220C0F10702042A00D90422011D072939
:1010600001D2002000E0C01E012191400A4A491E21
:101070008140080182F8140DFFF738FFFFF7B8FD33
:10108000FFF788FDFFF7E2FDFEE700004038024071
:101090000CED00E00000FA050FE000E04FF04070BA
:1010A000E1EE100A7047102840587088A0B8000080
:1010B0000000000000000102030406070809000008
:1010C0000000010203040000E810000800000020F6
:1010D0000400000004020008EC10000804000020D6
:0C10E00064060000200200080024F40058
:04000005080001C925
:00000001FF
