:020000040800F2
:100000007006002099020008C3120008631200085D
:10001000C11200088F0400088913000800000000C6
:10002000000000000000000000000000C7120008EF
:100030009104000800000000C5120008C912000861
:10004000B3020008B3020008B3020008B3020008BC
:10005000B3020008B3020008B3020008B3020008AC
:10006000B3020008B3020008B3020008B30200089C
:10007000B3020008B3020008B3020008B30200088C
:10008000B3020008B3020008B3020008B30200087C
:10009000B3020008B3020008B3020008B30200086C
:1000A000B3020008B3020008B3020008B30200085C
:1000B000B3020008B3020008B3020008B30200084C
:1000C000B3020008B3020008B3020008B30200083C
:1000D000B3020008B3020008B3020008B30200082C
:1000E000B3020008B3020008B3020008B30200081C
:1000F000B3020008B3020008B3020008B30200080C
:10010000B3020008B3020008B3020008B3020008FB
:10011000B3020008B3020008B3020008B3020008EB
:10012000B3020008B3020008B3020008B3020008DB
:10013000B3020008B3020008B3020008B3020008CB
:10014000B3020008B3020008B3020008B3020008BB
:10015000B3020008B3020008B3020008B3020008AB
:10016000B3020008B3020008B3020008B30200089B
:10017000B3020008B3020008B30200080000000048
:10018000B3020008B3020008B3020008B30200087B
:10019000B3020008B3020008B3020008B30200086B
:1001A000B3020008B3020008B3020008B30200085B
:1001B000B3020008B3020008B3020008B30200084B
:1001C000B3020008B302000800000000B3020008F8
:1001D000B3020008B3020008B3020008B30200082B
:1001E000B3020008B3020008B3020008B30200081B
:1001F000B3020008B302000800F002F800F03CF877
:100200000AA090E8000C82448344AAF10107DA4571
:1002100001D100F031F8AFF2090EBAE80F0013F087
:10022000010F18BFFB1A43F0010318472412000006
:1002300044120000103A24BF78C878C1FAD8520797
:1002400024BF30C830C144BF04680C607047000050
:100250000023002400250026103A28BF78C1FBD8CF
:10026000520728BF30C148BF0B6070471FB501F06F
:10027000E1F81FBD10B510BD00F0CFF81146FFF733
:10028000F5FF01F095F800F0EDF803B4FFF7F2FF89
:1002900003BC00F0F5F80000094880470948004712
:1002A000FEE7FEE7FEE7FEE7FEE7FEE7FEE7FEE726
:1002B000FEE7FEE704480549054A064B7047000083
:1002C0006D130008F901000870000020700600207E
:1002D000700200207002002053EA020C00F06980D6
:1002E0002DE9F04B4FF00006002B1FBFB3FA83F54A
:1002F00003FA05F424FA05F65E4012BF1643B2FA7B
:1003000082F502FA05F4C5F120051EBF22FA05FCAC
:1003100044EA0C04203556EA044C4FEA144418BF52
:10032000641C4FF000084FF00009904271EB030C81
:1003300039D3002919BFB1FA81F701FA07F6B0FAEB
:1003400080F700FA07F6C7F120071EBF20FA07FC66
:1003500046EA0C062037B6FBF4FCA7EB0507103F76
:1003600007F01F0BCBF120060CFA0BFB2CFA06F65C
:1003700044BFB3460026202FA4BF5E464FF0000BBB
:100380005BEA060C08BF4FF0010B19EB0B09ABFB46
:10039000027C48EB0608C01B06FB02CC0BFB03CC1F
:1003A00071EB0C01C1E70B46024641464846BDE8E9
:1003B000F08B13B54FF000004FF00001AFF3008059
:1003C000BDE81C4070474FF0000200B5134694464C
:1003D0009646203922BFA0E80C50A0E80C50B1F19D
:1003E0002001BFF4F7AF090728BFA0E80C5048BFB1
:1003F0000CC05DF804EB890028BF40F8042B08BF4F
:10040000704748BF20F8022B11F0804F18BF00F84A
:10041000012B7047704770477047754600F02CF805
:10042000AE4605006946534620F00700854618B0E1
:1004300020B5FFF73FFFBDE820404FF000064FF02A
:1004400000074FF000084FF0000B21F00701AC4609
:10045000ACE8C009ACE8C009ACE8C009ACE8C00928
:100460008D46704710B50446AFF300802046BDE8C6
:100470001040FFF70ABF000000487047100000203E
:1004800001491820ABBEFEE7260002007047FEE7D8
:10049000704700002DE9F84F0446AE4800260D468F
:1004A000844221D0AC4884421ED0AC4884421BD048
:1004B000AB48844218D0AB48844215D0AA48844245
:1004C00012D0AA4884420FD0A94884420CD0A9482F
:1004D000844209D0A848844206D0A848844203D068
:1004E000B121A7A000F062FF28880004000C03D10E
:1004F000B221A3A000F05AFF6868F8B101281DD00E
:1005000011281BD0022819D0122817D0AB498842D5
:1005100014D0AB49884211D0AA4988420ED0AA49CA
:1005200088420BD0A949884208D0A949884205D001
:10053000032803D0B32192A000F038FFA86838B197
:10054000012805D0022803D0B4218DA000F02EFF91
:100550004FF0010A4FF0030B2F680AFA06F007402C
:10056000804647457ED16868012805D0022803D01F
:10057000112801D012281DD1E86848B1012807D000
:10058000022805D0032803D0C6217DA000F00EFF6D
:10059000A0687200E9680BFA02F3984391400143A6
:1005A000A1606168287921EA0801C0F30010B04019
:1005B00008436060E0687300AA6899460BFA03F884
:1005C00020EA080002FA09F20243E26068680228A1
:1005D00001D0122834D1286908B301281FD002287D
:1005E0001DD003281BD0042819D0052817D00628B1
:1005F00015D0072813D0082811D009280FD00A28B1
:100600000DD00B280BD00C2809D00F2807D00D28AF
:1006100005D00E2803D0DE2159A000F0C7FEF00857
:1006200029690F2304EB80024FEA467C106A4FEAE7
:10063000DC6C03FA0CF3984301FA0CF101431162EC
:100640002979206801F0030120EA080001FA09F184
:10065000014321606868C00075D55E48016841F4B7
:10066000804100E06FE00160006826F00303B207FC
:1006700000F48040009058480F21120F0344D3F833
:100680000808DFF8D0C09140644520EA010001D19C
:1006900000212DE030498C4201D1012128E02F4971
:1006A0008C4201D1022123E02D498C4201D103214A
:1006B0001EE02C498C4201D1042119E02A498C42C8
:1006C00001D1052114E029498C4201D106210FE016
:1006D00027498C4201D107210AE026498C4201D1E9
:1006E000082105E024498C4201D1092100E00A21BA
:1006F00091403A4A0143C3F8081869681068C90371
:1007000020EA070000D5384334491060091D6A68A3
:100710000868920320EA070000D538432F4A086092
:10072000083269681068C90220EA070000D538431A
:100730002A4910600C316A680868920220EA0700B2
:1007400000D538430860761C102EFFF405AFBDE8D5
:10075000F88F000000000240000402400008024040
:10076000000C024000100240001402400018024039
:10077000001C0240002002400024024000280240E9
:100780002E2E2F447269766572732F53544D333277
:10079000463778785F48414C5F4472697665722FBE
:1007A0005372632F73746D3332663778785F686184
:1007B0006C5F6770696F2E6300000000000011100D
:1007C0000000211000003110000012100000221063
:1007D000000032104438024000300140003C01402B
:1007E00070B50C001546064604D109A04FF4CD7132
:1007F00000F0DCFD45B1012D04D005A040F29B11B5
:1008000000F0D4FDB46170BD2004B06170BD000083
:100810002E2E2F447269766572732F53544D3332E6
:10082000463778785F48414C5F4472697665722F2D
:100830005372632F73746D3332663778785F6861F3
:100840006C5F6770696F2E6300000000014880686C
:1008500070470000000000200248816802781144BF
:100860008160704700000020074810B5016841F41E
:1008700080710160032000F08FF80F2000F006F86F
:1008800000F024F8002010BD003C024070B50D4D72
:1008900004464FF47A700C4A29781268B0FBF1F0E4
:1008A000B2FBF0F000F0CAFC48B9102C07D20022CD
:1008B0002146501E00F022F800206C6070BD01201F
:1008C00070BD0000000000200C0000200A4808B5A0
:1008D000016841F080510160006800F08050009094
:1008E0000548001D016841F480410160006800F482
:1008F0008040009008BD00004038024070B5102ACA
:1009000014460D46064603D3AA2113A000F04EFD5F
:10091000102D03D3AB2110A000F048FD1D48006846
:10092000C0F30223C3F10702042A00D90422181DD0
:10093000072801D2002300E0DB1E012101FA02F0AA
:100940009940401E2840491E9840214001433046AE
:10095000BDE8704000F019BD2E2E2F4472697665F7
:1009600072732F53544D3332463778785F48414C79
:100970005F4472697665722F5372632F73746D339F
:1009800032663778785F68616C5F636F7274657820
:100990002E6300000CED00E070B5072804460BD074
:1009A000062C09D0052C07D0042C05D0032C03D02D
:1009B000922108A000F0FAFC154904F007024FF656
:1009C000FF050868134B284040EA022018430860DE
:1009D00070BD00002E2E2F447269766572732F53FE
:1009E000544D3332463778785F48414C5F447269E2
:1009F0007665722F5372632F73746D333266377856
:100A0000785F68616C5F636F727465782E63000055
:100A10000CED00E00000FA051848F8B5016841F057
:100A2000805101600068164C00F0805000902068F2
:100A300040F480302060FFF709FF4FF47A760546D6
:100A400005E000BFFFF702FF401BB0420FD860680F
:100A5000C003F7D5206840F400302060FFF7F6FEB1
:100A6000054606E0FFF7F2FE401BB04201D9032025
:100A7000F8BD60688003F5D50020F8BD403802401D
:100A8000007000402DE9F04705000C467ED0286834
:100A9000401E0E2804D981A040F2DF2100F086FC20
:100AA00014B3012C20D0022C1ED0032C1CD0042CFB
:100AB0001AD0052C18D0062C16D0072C14D0082CD0
:100AC00012D0092C10D00A2C0ED00B2C0CD00C2CD0
:100AD0000AD00D2C08D00E2C06D00F2C04D04FF4C9
:100AE00038716EA000F062FC7A4F386800F00F0099
:100AF000A04209D2386820F00F00204338603868DF
:100B000000F00F00A0427ED12868734E810729D5DE
:100B1000400703D5306840F4E05030602878000783
:100B200003D5306840F460403060A868A0B18028E8
:100B300012D0902810D0A0280ED0B0280CD0C028F9
:100B40000AD0D02808D0E02806D0F02804D04FF4EE
:100B5000417152A000F02AFCA968306820F0F00032
:100B6000084330602878C0073ED0DFF86C816868A1
:100B7000A8F1080878B101281ED0022820D047A08B
:100B800040F20B3100F012FC686800E03BE0012805
:100B900012D0022814D0D8F800008007002832DADA
:100BA0006968306820F0030008433060FFF74EFEAC
:100BB000804641F2883910E0D8F800008003EDE764
:100BC000D8F800008001E9E7FFF740FEA0EB08013C
:100BD000494502D90320BDE8F0876868316801F013
:100BE0000C01B1EB800FEFD1386800F00F00A0428C
:100BF0000BD9386820F00F0020433860386800F0C7
:100C00000F00A04201D00120E5E728784FF480547E
:100C10004FF4A0574FF4C05840074FF4E05914D593
:100C2000E86860B1A0420AD0B84208D0404506D07A
:100C3000484504D04FF4527118A000F0B7FBE968A2
:100C4000306820F4E050084330602878000715D55C
:100C5000286960B1A0420AD0B84208D0404506D009
:100C6000484504D00DA040F24F3100F09FFB2869A9
:100C7000316821F4604141EAC000306000F034F88E
:100C80003168164AC1F30311515CC8401449086029
:100C900014480068FFF7FAFD00209CE72E2E2F4431
:100CA0007269766572732F53544D333246377878B4
:100CB0005F48414C5F4472697665722F5372632FAF
:100CC00073746D3332663778785F68616C5F726316
:100CD000632E6300003C0240083802403E140008C6
:100CE0000C00002004000020154910B515480968C3
:100CF00011F00C0213D01449042A0FD0082A0ED187
:100D00000F4C241F2268236802F03F025B0207D5C4
:100D10002068C0F38810A0FB010106E0084610BD62
:100D20002168C1F38811A1FB00010023FFF7D4FA69
:100D30002168C1F30141491C4900B0FBF1F010BD2D
:100D4000083802400024F40040787D012DE9F84F76
:100D500004004FF000077CD020680F2804D9FFA0C2
:100D600040F2651100F022FB2078DFF828A4AAF1F8
:100D70000408C007A8F1040558D060684FF4803615
:100D80004FF4A02940B1B04206D0484504D0F3A0AA
:100D900040F26B1100F00AFBDAF800105046C1F384
:100DA0008101012908D00068C0F3810002280AD11E
:100DB000D8F80000400206D52868800336D5606860
:100DC0000028C8D032E06068B04203D1286840F4FF
:100DD000803009E008B148450DD0286820F4803003
:100DE0002860286820F480202860606888B1FFF7B8
:100DF0002DFD064609E0286840F480202860E5E7DC
:100E0000FFF724FD801B64287ED828688003F7D56F
:100E10000CE0FFF71BFD064605E000BFFFF716FDDF
:100E2000801B6428F0D828688003F7D420788007D6
:100E300054D5E06830B1012804D0C8A040F29D111B
:100E400000F0B4FA20691F2806D9C4A04FF4CF716E
:100E500000E095E000F0AAFADAF80010504611F030
:100E60000C0F08D00068C0F3810002280AD1D8F81E
:100E70000000400206D42868800717D5E0680128E2
:100E80007ED113E0E0680028286817D040F0010008
:100E90002860FFF7DBFC064605E000BFFFF7D6FC45
:100EA000801B0228B0D828688007F7D520692968F8
:100EB00021F0F80141EAC00028600FE020F00100B5
:100EC0002860FFF7C3FC064605E000BFFFF7BEFC45
:100ED000801B022898D828688007F7D4207800075C
:100EE00035D5AC4E60696C36F0B1012806D09BA0B8
:100EF0004FF4EF7100F05AFA6069A8B13168B14659
:100F000041F00101316000E05FE1FFF79FFC064620
:100F100005E000BFFFF79AFC801B0228C2D8D9F871
:100F200000008007F6D512E03168B14621F00101DA
:100F30003160FFF78BFC064605E000BFFFF786FC3B
:100F4000801B0228AED8D9F800008007F6D420789C
:100F5000400777D5A06840B1012806D0052804D005
:100F60004FF402717DA000F021FADFF8289209F118
:100F70003809D9F80000C0000DD4D9F8001000E0FD
:100F800058E141F08051C9F80010D9F8000001275C
:100F900000F08050009080480168C90511D40168B4
:100FA000834641F480710160FFF750FC064604E07F
:100FB000FFF74CFC801B64288CD8DBF80000C005D0
:100FC000F6D5744EA068683601280AD008B1052805
:100FD00011D0306820F001003060306820F004004B
:100FE00002E0306840F001003060A068A0B1FFF777
:100FF0002DFC83460CE0306840F004003060F0E7E0
:10100000FFF724FCA0EB0B0141F28830814285D828
:1010100030688007F4D50EE0FFF718FC834607E040
:10102000FFF714FCA0EB0B0141F28830814289D814
:1010300030688007F4D42FB1D9F8001021F0805126
:10104000C9F80010A06900287ED0012809D0022824
:1010500007D04FF4137141A000F0A8F9A06900284F
:10106000F2D0DAF80000C0F3810002286DD0A06948
:10107000022807D0286820F080702860FFF7E6FB80
:101080000446A5E0E06938B1B0F5800F04D033A084
:1010900040F2552100F08AF9206A801E3D2804D9CB
:1010A0002EA040F2562100F081F9606A3238B0F586
:1010B000BF7F04D929A040F2572100F077F9A06A38
:1010C00002280AD0042808D0062806D0082804D010
:1010D0004FF4167121A000F069F9E06A801E0D2816
:1010E00004D91EA040F2592100F060F9206B801E47
:1010F000052804D919A040F25B2100F057F92868AF
:1011000020F080702860FFF7A1FB064605E000BFD5
:10111000FFF79CFB801B022857D828688001F7D472
:10112000D4E90921DFF874C0D4E9070694F8303017
:101130004F0894F82C1030430CEB074444EA821219
:10114000104340EA016001E076E045E040EA0370C8
:10115000C8F80000286840F0807021E02E2E2F444F
:101160007269766572732F53544D333246377878EF
:101170005F48414C5F4472697665722F5372632FEA
:1011800073746D3332663778785F68616C5F726351
:10119000632E630008380240007000400000FFFF2B
:1011A0002860FFF753FB044605E000BFFFF74EFB46
:1011B000001B022809D828688001F7D53CE000BF51
:1011C000FFF744FB001B022802D90320BDE8F88F7B
:1011D00028688001F4D42FE0A169D8F80000012923
:1011E00028D0E16900F480028A4223D1216A00F00C
:1011F0003F028A421ED1626A47F6C0710140B1EBDC
:10120000821F17D1A26A4FF0FF3300F4403103EB85
:101210005202B1EB024F0DD194F82C1000F0706225
:10122000B2EB016F06D194F8301000F0E040B0EB63
:10123000017F01D00120C9E70020C7E7401EB0F1BF
:10124000807F10B501D3012010BD4FF0E024606114
:101250000F21601700F099F80020A061072121619B
:1012600010BDFEE710B586B014216846FFF7ABF855
:101270001148016841F080010160016801F08001BE
:101280000591016841F002010160006801220B4CE8
:10129000032100F0020005902046FFF7A1FA01218A
:1012A000032000228DE80700204603916946FFF7DE
:1012B000F1F806B010BD00003038024000040240D2
:1012C000FEE7FEE770477047FFF7C6BA30B593B048
:1012D00034216846FFF777F814210DA8FFF773F85B
:1012E0002048016841F080510160006800F08050A2
:1012F00012901D48016841F44041016000680224D9
:10130000192300F440401290012008934FF4D8753F
:1013100082050104CDE90642CDE909540B94CDE9DB
:10132000000168460C94FFF711FD08B172B6FEE7A4
:10133000FFF772FB08B172B6FEE70FAD00214FF464
:10134000A0524FF4805385E80E000F20CDE90D0424
:1013500007210DA8FFF796FB002801D072B6FEE723
:1013600013B030BD403802400070004005484FF0D7
:1013700000610368034A43F470030360803A11601C
:101380007047000088ED00E0FEE7090700284FEAFB
:10139000116104DB00F1E02080F80014704700F0D8
:1013A0000F0000F1E02080F8141D70477047000026
:1013B000BFF34F8FBFF36F8F1C4900200860BFF34E
:1013C0004F8FBFF36F8F1A4A116841F400311160DB
:1013D000BFF34F8FBFF36F8F154970310860BFF3B4
:1013E0004F8F081F43F6FF740068104D1035C0F38F
:1013F0004E31C0F3C90304EA4116184646EA807725
:101400002F60401EFAD2491EF5D2BFF34F8F1068ED
:1014100040F480301060BFF34F8FBFF36F8FFFF742
:1014200023FAFFF753FFFFF71DFFFEE750EF00E041
:1014300014ED00E04FF04070E1EE100A704700003C
:101440000000000000000102030406070809000074
:101450007014000800000020100000003402000892
:1014600080140008100000206006000050020008F0
:101470000100000010000000000000000024F40043
:04000005080001F9F5
:00000001FF
